{
  "transactions": [
    {
      "hash": "0x450aca9f5f91346224bf6392ec076d15a9c536ee680a4afe7d073cc631439d42",
      "transactionType": "CALL",
      "contractName": null,
      "contractAddress": "0x779877A7B0D9E8603169DdbD7836e478b4624789",
      "function": "transferAndCall(address,uint256,bytes)",
      "arguments": [
        "0x8103B0A8A00be2DDC778e6e7eaa21791Cd364625",
        "3000000000000000000",
        "0x00000000000000000000000000000000000000000000000000000000000026a0"
      ],
      "transaction": {
        "type": "0x02",
        "from": "0xa2cd38c20aa36a1d7d1569289d9b61e9b01a2cd7",
        "to": "0x779877a7b0d9e8603169ddbd7836e478b4624789",
        "gas": "0x13fbe",
        "value": "0x0",
        "data": "0x4000aea00000000000000000000000008103b0a8a00be2ddc778e6e7eaa21791cd36462500000000000000000000000000000000000000000000000029a2241af62c00000000000000000000000000000000000000000000000000000000000000000060000000000000000000000000000000000000000000000000000000000000002000000000000000000000000000000000000000000000000000000000000026a0",
        "nonce": "0x10",
        "accessList": []
      },
      "additionalContracts": [],
      "isFixedGasLimit": false
    }
  ],
  "receipts": [
    {
      "transactionHash": "0x450aca9f5f91346224bf6392ec076d15a9c536ee680a4afe7d073cc631439d42",
      "transactionIndex": "0x8",
      "blockHash": "0x2e15cd6f9c727323d6983302b4bc89e565e99b8ab59e98c0c8a5fac363f24038",
      "blockNumber": "0x52f7e0",
      "from": "0xA2Cd38C20Aa36a1D7d1569289D9B61E9b01a2cd7",
      "to": "0x779877A7B0D9E8603169DdbD7836e478b4624789",
      "cumulativeGasUsed": "0x5a412",
      "gasUsed": "0xe77e",
      "contractAddress": null,
      "logs": [
        {
          "address": "0x779877A7B0D9E8603169DdbD7836e478b4624789",
          "topics": [
            "0xddf252ad1be2c89b69c2b068fc378daa952ba7f163c4a11628f55a4df523b3ef",
            "0x000000000000000000000000a2cd38c20aa36a1d7d1569289d9b61e9b01a2cd7",
            "0x0000000000000000000000008103b0a8a00be2ddc778e6e7eaa21791cd364625"
          ],
          "data": "0x00000000000000000000000000000000000000000000000029a2241af62c0000",
          "blockHash": "0x2e15cd6f9c727323d6983302b4bc89e565e99b8ab59e98c0c8a5fac363f24038",
          "blockNumber": "0x52f7e0",
          "transactionHash": "0x450aca9f5f91346224bf6392ec076d15a9c536ee680a4afe7d073cc631439d42",
          "transactionIndex": "0x8",
          "logIndex": "0x6",
          "removed": false
        },
        {
          "address": "0x779877A7B0D9E8603169DdbD7836e478b4624789",
          "topics": [
            "0xe19260aff97b920c7df27010903aeb9c8d2be5d310a2c67824cf3f15396e4c16",
            "0x000000000000000000000000a2cd38c20aa36a1d7d1569289d9b61e9b01a2cd7",
            "0x0000000000000000000000008103b0a8a00be2ddc778e6e7eaa21791cd364625"
          ],
          "data": "0x00000000000000000000000000000000000000000000000029a2241af62c00000000000000000000000000000000000000000000000000000000000000000040000000000000000000000000000000000000000000000000000000000000002000000000000000000000000000000000000000000000000000000000000026a0",
          "blockHash": "0x2e15cd6f9c727323d6983302b4bc89e565e99b8ab59e98c0c8a5fac363f24038",
          "blockNumber": "0x52f7e0",
          "transactionHash": "0x450aca9f5f91346224bf6392ec076d15a9c536ee680a4afe7d073cc631439d42",
          "transactionIndex": "0x8",
          "logIndex": "0x7",
          "removed": false
        },
        {
          "address": "0x8103B0A8A00be2DDC778e6e7eaa21791Cd364625",
          "topics": [
            "0xd39ec07f4e209f627a4c427971473820dc129761ba28de8906bd56f57101d4f8",
            "0x00000000000000000000000000000000000000000000000000000000000026a0"
          ],
          "data": "0x0000000000000000000000000000000000000000000000004563918244f400000000000000000000000000000000000000000000000000006f05b59d3b200000",
          "blockHash": "0x2e15cd6f9c727323d6983302b4bc89e565e99b8ab59e98c0c8a5fac363f24038",
          "blockNumber": "0x52f7e0",
          "transactionHash": "0x450aca9f5f91346224bf6392ec076d15a9c536ee680a4afe7d073cc631439d42",
          "transactionIndex": "0x8",
          "logIndex": "0x8",
          "removed": false
        }
      ],
      "status": "0x1",
      "logsBloom": "0x0000001400000000000000000000000000000000000000020000000002000000000000000000800000000000000000000000000000000000000000000000000000000000000000000000000800000000000000000000000000002020000000000000000000000000000000000000000000000800400100000000001000000000000000000c000020000000000000800010000020000000000000000000000000000000000000000000000000000000000000000000000000000400000000000000000002000000000000000008000000000000000000000100000000020000000000000000000040000000000000000000000000000000000000000000000000",
      "type": "0x2",
      "effectiveGasPrice": "0xb7fb0f4c"
    }
  ],
  "libraries": [],
  "pending": [],
  "returns": {},
  "timestamp": 1709842700,
  "chain": 11155111,
  "multi": false,
  "commit": "f231797"
}